{
  "contractName": "JudgementIndexing",
  "abi": [
    {
      "inputs": [
        {
          "internalType": "string",
          "name": "",
          "type": "string"
        }
      ],
      "name": "judgementIndex",
      "outputs": [
        {
          "internalType": "address",
          "name": "",
          "type": "address"
        }
      ],
      "stateMutability": "view",
      "type": "function",
      "constant": true
    },
    {
      "inputs": [
        {
          "internalType": "address",
          "name": "user",
          "type": "address"
        },
        {
          "internalType": "string",
          "name": "secret",
          "type": "string"
        }
      ],
      "name": "addAuthorizedUser",
      "outputs": [],
      "stateMutability": "payable",
      "type": "function",
      "payable": true
    },
    {
      "inputs": [],
      "name": "viewAuthorizedUsers",
      "outputs": [
        {
          "internalType": "address[]",
          "name": "",
          "type": "address[]"
        }
      ],
      "stateMutability": "view",
      "type": "function",
      "constant": true
    },
    {
      "inputs": [
        {
          "internalType": "string",
          "name": "redCaseNum",
          "type": "string"
        },
        {
          "internalType": "string[]",
          "name": "_section",
          "type": "string[]"
        },
        {
          "internalType": "string",
          "name": "_cid",
          "type": "string"
        }
      ],
      "name": "addNewJudgement",
      "outputs": [],
      "stateMutability": "nonpayable",
      "type": "function"
    },
    {
      "inputs": [
        {
          "internalType": "string",
          "name": "_redCaseName",
          "type": "string"
        }
      ],
      "name": "getJudgement",
      "outputs": [
        {
          "internalType": "address",
          "name": "",
          "type": "address"
        }
      ],
      "stateMutability": "view",
      "type": "function",
      "constant": true
    },
    {
      "inputs": [
        {
          "internalType": "string",
          "name": "_redCaseName",
          "type": "string"
        }
      ],
      "name": "getCIDByRedCase",
      "outputs": [
        {
          "internalType": "string",
          "name": "",
          "type": "string"
        }
      ],
      "stateMutability": "view",
      "type": "function",
      "constant": true
    },
    {
      "inputs": [
        {
          "internalType": "string",
          "name": "_redCaseName",
          "type": "string"
        }
      ],
      "name": "getSectionNumbersByRedCase",
      "outputs": [
        {
          "internalType": "string[]",
          "name": "",
          "type": "string[]"
        }
      ],
      "stateMutability": "view",
      "type": "function",
      "constant": true
    }
  ],
  "bytecode": "0x6080604052600067ffffffffffffffff8111156200002257620000216200020b565b5b604051908082528060200260200182016040528015620000515781602001602082028036833780820191505090505b506001908051906020019062000069929190620000cc565b506040518060400160405280600781526020017f534543524554530000000000000000000000000000000000000000000000000081525060029080519060200190620000b79291906200015b565b50348015620000c557600080fd5b506200029e565b82805482825590600052602060002090810192821562000148579160200282015b82811115620001475782518260006101000a81548173ffffffffffffffffffffffffffffffffffffffff021916908373ffffffffffffffffffffffffffffffffffffffff16021790555091602001919060010190620000ed565b5b509050620001579190620001ec565b5090565b828054620001699062000269565b90600052602060002090601f0160209004810192826200018d5760008555620001d9565b82601f10620001a857805160ff1916838001178555620001d9565b82800160010185558215620001d9579182015b82811115620001d8578251825591602001919060010190620001bb565b5b509050620001e89190620001ec565b5090565b5b8082111562000207576000816000905550600101620001ed565b5090565b7f4e487b7100000000000000000000000000000000000000000000000000000000600052604160045260246000fd5b7f4e487b7100000000000000000000000000000000000000000000000000000000600052602260045260246000fd5b600060028204905060018216806200028257607f821691505b6020821081036200029857620002976200023a565b5b50919050565b611f3180620002ae6000396000f3fe6080604052600436106200007a5760003560e01c80639ca1a3c011620000555780639ca1a3c01462000127578063a18b38f3146200016b578063b3e0ea3214620001af578063be8fe92c14620001df576200007a565b80631f719ba1146200007f57806342cfaed614620000c35780635102a1a41462000107575b600080fd5b3480156200008c57600080fd5b50620000ab6004803603810190620000a591906200092c565b6200020d565b604051620000ba919062000ae0565b60405180910390f35b348015620000d057600080fd5b50620000ef6004803603810190620000e991906200092c565b620002cd565b604051620000fe919062000b49565b60405180910390f35b6200012560048036038101906200011f919062000b97565b62000316565b005b3480156200013457600080fd5b506200015360048036038101906200014d91906200092c565b62000467565b60405162000162919062000c4f565b60405180910390f35b3480156200017857600080fd5b506200019760048036038101906200019191906200092c565b62000527565b604051620001a6919062000b49565b60405180910390f35b348015620001bc57600080fd5b50620001c762000570565b604051620001d6919062000d41565b60405180910390f35b348015620001ec57600080fd5b506200020b600480360381019062000205919062000e61565b62000600565b005b606060008260405162000221919062000f5c565b908152602001604051809103902060009054906101000a900473ffffffffffffffffffffffffffffffffffffffff1673ffffffffffffffffffffffffffffffffffffffff16638787d6a36040518163ffffffff1660e01b8152600401600060405180830381865afa1580156200029b573d6000803e3d6000fd5b505050506040513d6000823e3d601f19601f82011682018060405250810190620002c69190620010bb565b9050919050565b60008082604051620002e0919062000f5c565b908152602001604051809103902060009054906101000a900473ffffffffffffffffffffffffffffffffffffffff169050919050565b60026040516020016200032a919062001211565b604051602081830303815290604052805190602001208160405160200162000353919062000c4f565b6040516020818303038152906040528051906020012014620003ac576040517f08c379a0000000000000000000000000000000000000000000000000000000008152600401620003a39062001285565b60405180910390fd5b60001515620003bb83620006f1565b15151462000400576040517f08c379a0000000000000000000000000000000000000000000000000000000008152600401620003f790620012f7565b60405180910390fd5b6001829080600181540180825580915050600190039060005260206000200160009091909190916101000a81548173ffffffffffffffffffffffffffffffffffffffff021916908373ffffffffffffffffffffffffffffffffffffffff1602179055505050565b60606000826040516200047b919062000f5c565b908152602001604051809103902060009054906101000a900473ffffffffffffffffffffffffffffffffffffffff1673ffffffffffffffffffffffffffffffffffffffff166302790e346040518163ffffffff1660e01b8152600401600060405180830381865afa158015620004f5573d6000803e3d6000fd5b505050506040513d6000823e3d601f19601f8201168201806040525081019062000520919062001319565b9050919050565b6000818051602081018201805184825260208301602085012081835280955050505050506000915054906101000a900473ffffffffffffffffffffffffffffffffffffffff1681565b60606001805480602002602001604051908101604052809291908181526020018280548015620005f657602002820191906000526020600020905b8160009054906101000a900473ffffffffffffffffffffffffffffffffffffffff1673ffffffffffffffffffffffffffffffffffffffff1681526020019060010190808311620005ab575b5050505050905090565b6200060b33620006f1565b6200064d576040517f08c379a00000000000000000000000000000000000000000000000000000000081526004016200064490620013ba565b60405180910390fd5b600081836040516200065f90620007a8565b6200066c929190620013dc565b604051809103906000f08015801562000689573d6000803e3d6000fd5b509050806000856040516200069f919062000f5c565b908152602001604051809103902060006101000a81548173ffffffffffffffffffffffffffffffffffffffff021916908373ffffffffffffffffffffffffffffffffffffffff16021790555050505050565b600080600090505b6001805490508110156200079d578273ffffffffffffffffffffffffffffffffffffffff166001828154811062000735576200073462001417565b5b9060005260206000200160009054906101000a900473ffffffffffffffffffffffffffffffffffffffff1673ffffffffffffffffffffffffffffffffffffffff160362000787576001915050620007a3565b808062000794906200147f565b915050620006f9565b50600090505b919050565b610a2f80620014cd83390190565b6000604051905090565b600080fd5b600080fd5b600080fd5b600080fd5b6000601f19601f8301169050919050565b7f4e487b7100000000000000000000000000000000000000000000000000000000600052604160045260246000fd5b6200081f82620007d4565b810181811067ffffffffffffffff82111715620008415762000840620007e5565b5b80604052505050565b600062000856620007b6565b905062000864828262000814565b919050565b600067ffffffffffffffff821115620008875762000886620007e5565b5b6200089282620007d4565b9050602081019050919050565b82818337600083830152505050565b6000620008c5620008bf8462000869565b6200084a565b905082815260208101848484011115620008e457620008e3620007cf565b5b620008f18482856200089f565b509392505050565b600082601f830112620009115762000910620007ca565b5b813562000923848260208601620008ae565b91505092915050565b600060208284031215620009455762000944620007c0565b5b600082013567ffffffffffffffff811115620009665762000965620007c5565b5b6200097484828501620008f9565b91505092915050565b600081519050919050565b600082825260208201905092915050565b6000819050602082019050919050565b600081519050919050565b600082825260208201905092915050565b60005b83811015620009e5578082015181840152602081019050620009c8565b83811115620009f5576000848401525b50505050565b600062000a0882620009a9565b62000a148185620009b4565b935062000a26818560208601620009c5565b62000a3181620007d4565b840191505092915050565b600062000a4a8383620009fb565b905092915050565b6000602082019050919050565b600062000a6c826200097d565b62000a78818562000988565b93508360208202850162000a8c8562000999565b8060005b8581101562000ace578484038952815162000aac858262000a3c565b945062000ab98362000a52565b925060208a0199505060018101905062000a90565b50829750879550505050505092915050565b6000602082019050818103600083015262000afc818462000a5f565b905092915050565b600073ffffffffffffffffffffffffffffffffffffffff82169050919050565b600062000b318262000b04565b9050919050565b62000b438162000b24565b82525050565b600060208201905062000b60600083018462000b38565b92915050565b62000b718162000b24565b811462000b7d57600080fd5b50565b60008135905062000b918162000b66565b92915050565b6000806040838503121562000bb15762000bb0620007c0565b5b600062000bc18582860162000b80565b925050602083013567ffffffffffffffff81111562000be55762000be4620007c5565b5b62000bf385828601620008f9565b9150509250929050565b600082825260208201905092915050565b600062000c1b82620009a9565b62000c27818562000bfd565b935062000c39818560208601620009c5565b62000c4481620007d4565b840191505092915050565b6000602082019050818103600083015262000c6b818462000c0e565b905092915050565b600081519050919050565b600082825260208201905092915050565b6000819050602082019050919050565b62000caa8162000b24565b82525050565b600062000cbe838362000c9f565b60208301905092915050565b6000602082019050919050565b600062000ce48262000c73565b62000cf0818562000c7e565b935062000cfd8362000c8f565b8060005b8381101562000d3457815162000d18888262000cb0565b975062000d258362000cca565b92505060018101905062000d01565b5085935050505092915050565b6000602082019050818103600083015262000d5d818462000cd7565b905092915050565b600067ffffffffffffffff82111562000d835762000d82620007e5565b5b602082029050602081019050919050565b600080fd5b600062000db062000daa8462000d65565b6200084a565b9050808382526020820190506020840283018581111562000dd65762000dd562000d94565b5b835b8181101562000e2457803567ffffffffffffffff81111562000dff5762000dfe620007ca565b5b80860162000e0e8982620008f9565b8552602085019450505060208101905062000dd8565b5050509392505050565b600082601f83011262000e465762000e45620007ca565b5b813562000e5884826020860162000d99565b91505092915050565b60008060006060848603121562000e7d5762000e7c620007c0565b5b600084013567ffffffffffffffff81111562000e9e5762000e9d620007c5565b5b62000eac86828701620008f9565b935050602084013567ffffffffffffffff81111562000ed05762000ecf620007c5565b5b62000ede8682870162000e2e565b925050604084013567ffffffffffffffff81111562000f025762000f01620007c5565b5b62000f1086828701620008f9565b9150509250925092565b600081905092915050565b600062000f3282620009a9565b62000f3e818562000f1a565b935062000f50818560208601620009c5565b80840191505092915050565b600062000f6a828462000f25565b915081905092915050565b600062000f8c62000f868462000869565b6200084a565b90508281526020810184848401111562000fab5762000faa620007cf565b5b62000fb8848285620009c5565b509392505050565b600082601f83011262000fd85762000fd7620007ca565b5b815162000fea84826020860162000f75565b91505092915050565b60006200100a620010048462000d65565b6200084a565b9050808382526020820190506020840283018581111562001030576200102f62000d94565b5b835b818110156200107e57805167ffffffffffffffff811115620010595762001058620007ca565b5b80860162001068898262000fc0565b8552602085019450505060208101905062001032565b5050509392505050565b600082601f830112620010a0576200109f620007ca565b5b8151620010b284826020860162000ff3565b91505092915050565b600060208284031215620010d457620010d3620007c0565b5b600082015167ffffffffffffffff811115620010f557620010f4620007c5565b5b620011038482850162001088565b91505092915050565b7f4e487b7100000000000000000000000000000000000000000000000000000000600052602260045260246000fd5b600060028204905060018216806200115457607f821691505b6020821081036200116a57620011696200110c565b5b50919050565b60008190508160005260206000209050919050565b6000815462001194816200113b565b620011a0818662000bfd565b94506001821660008114620011be5760018114620011d15762001208565b60ff198316865260208601935062001208565b620011dc8562001170565b60005b838110156200120057815481890152600182019150602081019050620011df565b808801955050505b50505092915050565b600060208201905081810360008301526200122d818462001185565b905092915050565b7f496e76616c696420736563726574000000000000000000000000000000000000600082015250565b60006200126d600e8362000bfd565b91506200127a8262001235565b602082019050919050565b60006020820190508181036000830152620012a0816200125e565b9050919050565b7f54686973207573657220697320616c7265616479206164646564000000000000600082015250565b6000620012df601a8362000bfd565b9150620012ec82620012a7565b602082019050919050565b600060208201905081810360008301526200131281620012d0565b9050919050565b600060208284031215620013325762001331620007c0565b5b600082015167ffffffffffffffff811115620013535762001352620007c5565b5b620013618482850162000fc0565b91505092915050565b7f556e617574686f72697a65640000000000000000000000000000000000000000600082015250565b6000620013a2600c8362000bfd565b9150620013af826200136a565b602082019050919050565b60006020820190508181036000830152620013d58162001393565b9050919050565b60006040820190508181036000830152620013f8818562000c0e565b905081810360208301526200140e818462000a5f565b90509392505050565b7f4e487b7100000000000000000000000000000000000000000000000000000000600052603260045260246000fd5b7f4e487b7100000000000000000000000000000000000000000000000000000000600052601160045260246000fd5b6000819050919050565b60006200148c8262001475565b91507fffffffffffffffffffffffffffffffffffffffffffffffffffffffffffffffff8203620014c157620014c062001446565b5b60018201905091905056fe60806040523480156200001157600080fd5b5060405162000a2f38038062000a2f833981810160405281019062000037919062000420565b81600090805190602001906200004f929190620000d7565b5060005b8151811015620000ce576001828281518110620000755762000074620004a5565b5b6020026020010151908060018154018082558091505060019003906000526020600020016000909190919091509080519060200190620000b7929190620000d7565b508080620000c5906200050d565b91505062000053565b505050620005be565b828054620000e59062000589565b90600052602060002090601f01602090048101928262000109576000855562000155565b82601f106200012457805160ff191683800117855562000155565b8280016001018555821562000155579182015b828111156200015457825182559160200191906001019062000137565b5b50905062000164919062000168565b5090565b5b808211156200018357600081600090555060010162000169565b5090565b6000604051905090565b600080fd5b600080fd5b600080fd5b600080fd5b6000601f19601f8301169050919050565b7f4e487b7100000000000000000000000000000000000000000000000000000000600052604160045260246000fd5b620001f082620001a5565b810181811067ffffffffffffffff82111715620002125762000211620001b6565b5b80604052505050565b60006200022762000187565b9050620002358282620001e5565b919050565b600067ffffffffffffffff821115620002585762000257620001b6565b5b6200026382620001a5565b9050602081019050919050565b60005b838110156200029057808201518184015260208101905062000273565b83811115620002a0576000848401525b50505050565b6000620002bd620002b7846200023a565b6200021b565b905082815260208101848484011115620002dc57620002db620001a0565b5b620002e984828562000270565b509392505050565b600082601f8301126200030957620003086200019b565b5b81516200031b848260208601620002a6565b91505092915050565b600067ffffffffffffffff821115620003425762000341620001b6565b5b602082029050602081019050919050565b600080fd5b60006200036f620003698462000324565b6200021b565b9050808382526020820190506020840283018581111562000395576200039462000353565b5b835b81811015620003e357805167ffffffffffffffff811115620003be57620003bd6200019b565b5b808601620003cd8982620002f1565b8552602085019450505060208101905062000397565b5050509392505050565b600082601f8301126200040557620004046200019b565b5b81516200041784826020860162000358565b91505092915050565b600080604083850312156200043a576200043962000191565b5b600083015167ffffffffffffffff8111156200045b576200045a62000196565b5b6200046985828601620002f1565b925050602083015167ffffffffffffffff8111156200048d576200048c62000196565b5b6200049b85828601620003ed565b9150509250929050565b7f4e487b7100000000000000000000000000000000000000000000000000000000600052603260045260246000fd5b7f4e487b7100000000000000000000000000000000000000000000000000000000600052601160045260246000fd5b6000819050919050565b60006200051a8262000503565b91507fffffffffffffffffffffffffffffffffffffffffffffffffffffffffffffffff82036200054f576200054e620004d4565b5b600182019050919050565b7f4e487b7100000000000000000000000000000000000000000000000000000000600052602260045260246000fd5b60006002820490506001821680620005a257607f821691505b602082108103620005b857620005b76200055a565b5b50919050565b61046180620005ce6000396000f3fe608060405234801561001057600080fd5b50600436106100365760003560e01c806302790e341461003b5780638787d6a314610059575b600080fd5b610043610077565b604051610050919061027b565b60405180910390f35b610061610109565b60405161006e91906103a9565b60405180910390f35b606060008054610086906103fa565b80601f01602080910402602001604051908101604052809291908181526020018280546100b2906103fa565b80156100ff5780601f106100d4576101008083540402835291602001916100ff565b820191906000526020600020905b8154815290600101906020018083116100e257829003601f168201915b5050505050905090565b60606001805480602002602001604051908101604052809291908181526020016000905b828210156101d957838290600052602060002001805461014c906103fa565b80601f0160208091040260200160405190810160405280929190818152602001828054610178906103fa565b80156101c55780601f1061019a576101008083540402835291602001916101c5565b820191906000526020600020905b8154815290600101906020018083116101a857829003601f168201915b50505050508152602001906001019061012d565b50505050905090565b600081519050919050565b600082825260208201905092915050565b60005b8381101561021c578082015181840152602081019050610201565b8381111561022b576000848401525b50505050565b6000601f19601f8301169050919050565b600061024d826101e2565b61025781856101ed565b93506102678185602086016101fe565b61027081610231565b840191505092915050565b600060208201905081810360008301526102958184610242565b905092915050565b600081519050919050565b600082825260208201905092915050565b6000819050602082019050919050565b600082825260208201905092915050565b60006102e5826101e2565b6102ef81856102c9565b93506102ff8185602086016101fe565b61030881610231565b840191505092915050565b600061031f83836102da565b905092915050565b6000602082019050919050565b600061033f8261029d565b61034981856102a8565b93508360208202850161035b856102b9565b8060005b8581101561039757848403895281516103788582610313565b945061038383610327565b925060208a0199505060018101905061035f565b50829750879550505050505092915050565b600060208201905081810360008301526103c38184610334565b905092915050565b7f4e487b7100000000000000000000000000000000000000000000000000000000600052602260045260246000fd5b6000600282049050600182168061041257607f821691505b602082108103610425576104246103cb565b5b5091905056fea2646970667358221220347657996f124bcc521a1f3879dd1f08b342a03bb158bd317cc4e041b7c367f364736f6c634300080e0033a264697066735822122007ee20ea203440f9e900a377a7ad1e6153306f19894b20d31b3b0a619079912e64736f6c634300080e0033",
  "immutableReferences": {},
  "source": "// SPDX-License-Identifier: MIT\r\npragma solidity >=0.4.22 <0.9.0;\r\npragma experimental ABIEncoderV2;\r\n\r\ncontract Judgement {\r\n    string cid;\r\n    string[] sectionNumbers;\r\n    \r\n    constructor(string memory _cid, string[] memory _sectionNumbers) public {\r\n        cid = _cid;\r\n        for (uint i; i < _sectionNumbers.length; i++) {\r\n            sectionNumbers.push( _sectionNumbers[i]);\r\n        }\r\n    }\r\n\r\n    function getCID() public view returns (string memory) {\r\n        return cid;\r\n    }\r\n\r\n    function getSectionNumbers() public view returns (string[] memory) {\r\n        return sectionNumbers;\r\n    }\r\n\r\n}\r\n\r\ncontract JudgementIndexing {\r\n    mapping(string => address) public judgementIndex;\r\n    address[] authorizedUsers = new address[](0);\r\n    string private _secret = \"SECRETS\";\r\n\r\n    function addAuthorizedUser(address user, string memory secret) public payable {\r\n        require(keccak256(abi.encode(secret)) == keccak256(abi.encode(_secret)),\"Invalid secret\");\r\n        require(auth(user) == false, \"This user is already added\");\r\n        authorizedUsers.push(user);\r\n    }\r\n\r\n    function viewAuthorizedUsers() public view returns (address[] memory) {\r\n        return authorizedUsers;\r\n    }\r\n\r\n    function auth(address user) private view returns (bool){\r\n        for (uint i = 0; i < authorizedUsers.length; i++) {\r\n            if (authorizedUsers[i] == user) {\r\n                return true;\r\n            }\r\n        }\r\n        return false;\r\n    }\r\n\r\n    function addNewJudgement(string memory redCaseNum, string[] memory _section, string memory _cid) public {\r\n        require(auth(msg.sender),\"Unauthorized\");\r\n        address _judgementAddress = address(new Judgement(_cid, _section));\r\n        judgementIndex[redCaseNum] = _judgementAddress;\r\n    }\r\n\r\n    function getJudgement(string memory _redCaseName) public view returns (address) {\r\n        return judgementIndex[_redCaseName];\r\n    }\r\n\r\n    function getCIDByRedCase(string memory _redCaseName) public view returns (string memory) {\r\n        return Judgement(judgementIndex[_redCaseName]).getCID();\r\n    }\r\n\r\n    function getSectionNumbersByRedCase(string memory _redCaseName) public view returns (string[] memory) {\r\n        return Judgement(judgementIndex[_redCaseName]).getSectionNumbers();\r\n    }\r\n}\r\n",
  "sourcePath": "C:\\Peem\\CU\\Y4_S1\\ADV_TOP_COMP\\Project\\lawchain\\truffle\\contracts\\JudgementIndexing.sol",
  "compiler": {
    "name": "solc",
    "version": "0.8.14+commit.80d49f37.Emscripten.clang"
  },
  "schemaVersion": "3.4.10",
  "updatedAt": "2022-11-19T14:51:21.550Z",
  "networkType": "ethereum",
  "devdoc": {
    "kind": "dev",
    "methods": {},
    "version": 1
  },
  "userdoc": {
    "kind": "user",
    "methods": {},
    "version": 1
  }
}