{
  "contractName": "Judgement",
  "abi": [
    {
      "inputs": [
        {
          "internalType": "string",
          "name": "_cid",
          "type": "string"
        },
        {
          "internalType": "string[]",
          "name": "_sectionNumbers",
          "type": "string[]"
        }
      ],
      "stateMutability": "nonpayable",
      "type": "constructor"
    },
    {
      "inputs": [],
      "name": "getCID",
      "outputs": [
        {
          "internalType": "string",
          "name": "",
          "type": "string"
        }
      ],
      "stateMutability": "view",
      "type": "function"
    },
    {
      "inputs": [],
      "name": "getSectionNumbers",
      "outputs": [
        {
          "internalType": "string[]",
          "name": "",
          "type": "string[]"
        }
      ],
      "stateMutability": "view",
      "type": "function"
    }
  ],
  "bytecode": "0x60806040523480156200001157600080fd5b5060405162000a2f38038062000a2f833981810160405281019062000037919062000420565b81600090805190602001906200004f929190620000d7565b5060005b8151811015620000ce576001828281518110620000755762000074620004a5565b5b6020026020010151908060018154018082558091505060019003906000526020600020016000909190919091509080519060200190620000b7929190620000d7565b508080620000c5906200050d565b91505062000053565b505050620005be565b828054620000e59062000589565b90600052602060002090601f01602090048101928262000109576000855562000155565b82601f106200012457805160ff191683800117855562000155565b8280016001018555821562000155579182015b828111156200015457825182559160200191906001019062000137565b5b50905062000164919062000168565b5090565b5b808211156200018357600081600090555060010162000169565b5090565b6000604051905090565b600080fd5b600080fd5b600080fd5b600080fd5b6000601f19601f8301169050919050565b7f4e487b7100000000000000000000000000000000000000000000000000000000600052604160045260246000fd5b620001f082620001a5565b810181811067ffffffffffffffff82111715620002125762000211620001b6565b5b80604052505050565b60006200022762000187565b9050620002358282620001e5565b919050565b600067ffffffffffffffff821115620002585762000257620001b6565b5b6200026382620001a5565b9050602081019050919050565b60005b838110156200029057808201518184015260208101905062000273565b83811115620002a0576000848401525b50505050565b6000620002bd620002b7846200023a565b6200021b565b905082815260208101848484011115620002dc57620002db620001a0565b5b620002e984828562000270565b509392505050565b600082601f8301126200030957620003086200019b565b5b81516200031b848260208601620002a6565b91505092915050565b600067ffffffffffffffff821115620003425762000341620001b6565b5b602082029050602081019050919050565b600080fd5b60006200036f620003698462000324565b6200021b565b9050808382526020820190506020840283018581111562000395576200039462000353565b5b835b81811015620003e357805167ffffffffffffffff811115620003be57620003bd6200019b565b5b808601620003cd8982620002f1565b8552602085019450505060208101905062000397565b5050509392505050565b600082601f8301126200040557620004046200019b565b5b81516200041784826020860162000358565b91505092915050565b600080604083850312156200043a576200043962000191565b5b600083015167ffffffffffffffff8111156200045b576200045a62000196565b5b6200046985828601620002f1565b925050602083015167ffffffffffffffff8111156200048d576200048c62000196565b5b6200049b85828601620003ed565b9150509250929050565b7f4e487b7100000000000000000000000000000000000000000000000000000000600052603260045260246000fd5b7f4e487b7100000000000000000000000000000000000000000000000000000000600052601160045260246000fd5b6000819050919050565b60006200051a8262000503565b91507fffffffffffffffffffffffffffffffffffffffffffffffffffffffffffffffff82036200054f576200054e620004d4565b5b600182019050919050565b7f4e487b7100000000000000000000000000000000000000000000000000000000600052602260045260246000fd5b60006002820490506001821680620005a257607f821691505b602082108103620005b857620005b76200055a565b5b50919050565b61046180620005ce6000396000f3fe608060405234801561001057600080fd5b50600436106100365760003560e01c806302790e341461003b5780638787d6a314610059575b600080fd5b610043610077565b604051610050919061027b565b60405180910390f35b610061610109565b60405161006e91906103a9565b60405180910390f35b606060008054610086906103fa565b80601f01602080910402602001604051908101604052809291908181526020018280546100b2906103fa565b80156100ff5780601f106100d4576101008083540402835291602001916100ff565b820191906000526020600020905b8154815290600101906020018083116100e257829003601f168201915b5050505050905090565b60606001805480602002602001604051908101604052809291908181526020016000905b828210156101d957838290600052602060002001805461014c906103fa565b80601f0160208091040260200160405190810160405280929190818152602001828054610178906103fa565b80156101c55780601f1061019a576101008083540402835291602001916101c5565b820191906000526020600020905b8154815290600101906020018083116101a857829003601f168201915b50505050508152602001906001019061012d565b50505050905090565b600081519050919050565b600082825260208201905092915050565b60005b8381101561021c578082015181840152602081019050610201565b8381111561022b576000848401525b50505050565b6000601f19601f8301169050919050565b600061024d826101e2565b61025781856101ed565b93506102678185602086016101fe565b61027081610231565b840191505092915050565b600060208201905081810360008301526102958184610242565b905092915050565b600081519050919050565b600082825260208201905092915050565b6000819050602082019050919050565b600082825260208201905092915050565b60006102e5826101e2565b6102ef81856102c9565b93506102ff8185602086016101fe565b61030881610231565b840191505092915050565b600061031f83836102da565b905092915050565b6000602082019050919050565b600061033f8261029d565b61034981856102a8565b93508360208202850161035b856102b9565b8060005b8581101561039757848403895281516103788582610313565b945061038383610327565b925060208a0199505060018101905061035f565b50829750879550505050505092915050565b600060208201905081810360008301526103c38184610334565b905092915050565b7f4e487b7100000000000000000000000000000000000000000000000000000000600052602260045260246000fd5b6000600282049050600182168061041257607f821691505b602082108103610425576104246103cb565b5b5091905056fea2646970667358221220f1b859e4f1ef7bd361d0bc1f3e061fb7e2569129b78f0013531a99b6ef79f2b564736f6c634300080e0033",
  "immutableReferences": {},
  "source": "// SPDX-License-Identifier: MIT\r\npragma solidity >=0.4.22 <0.9.0;\r\npragma experimental ABIEncoderV2;\r\n\r\n\r\ncontract Ownable {\r\n    address private owner;\r\n\r\n    // modifier to check if caller is owner\r\n    modifier onlyOwner() {\r\n        require(msg.sender == owner, \"unauthorized\");\r\n        _;\r\n    }\r\n    constructor() public {\r\n        owner = msg.sender;\r\n    }\r\n\r\n    function changeOwner(address newOwner) public onlyOwner {\r\n        owner = newOwner;\r\n    }\r\n\r\n    function getOwner() public view returns (address) {\r\n        return owner;\r\n    }\r\n}\r\n\r\ncontract Judgement {\r\n    string cid;\r\n    string[] sectionNumbers;\r\n    \r\n    constructor(string memory _cid, string[] memory _sectionNumbers) public {\r\n        cid = _cid;\r\n        for (uint i; i < _sectionNumbers.length; i++) {\r\n            sectionNumbers.push( _sectionNumbers[i]);\r\n        }\r\n    }\r\n\r\n    function getCID() public view returns (string memory) {\r\n        return cid;\r\n    }\r\n\r\n    function getSectionNumbers() public view returns (string[] memory) {\r\n        return sectionNumbers;\r\n    }\r\n\r\n}\r\n\r\ncontract JudgementIndexing is Ownable{\r\n    mapping(string => address) public judgementIndex; \r\n\r\n    function addNewJudgement(string memory redCaseNum, string[] memory _section, string memory _cid) public onlyOwner {\r\n        address _judgementAddress = address(new Judgement(_cid, _section));\r\n        judgementIndex[redCaseNum] = _judgementAddress;\r\n    }\r\n\r\n    function getJudgement(string memory _redCaseName) public view returns (address) {\r\n        return judgementIndex[_redCaseName];\r\n    }\r\n\r\n    function getCIDByRedCase(string memory _redCaseName) public view returns (string memory) {\r\n        return Judgement(judgementIndex[_redCaseName]).getCID();\r\n    }\r\n\r\n    function getSectionNumbersByRedCase(string memory _redCaseName) public view returns (string[] memory) {\r\n        return Judgement(judgementIndex[_redCaseName]).getSectionNumbers();\r\n    }\r\n}\r\n",
  "sourcePath": "C:\\Peem\\CU\\Y4_S1\\ADV_TOP_COMP\\Project\\lawchain\\truffle\\contracts\\JudgementIndexing.sol",
  "compiler": {
    "name": "solc",
    "version": "0.8.14+commit.80d49f37.Emscripten.clang"
  },
  "schemaVersion": "3.4.10",
  "updatedAt": "2022-11-19T08:03:18.683Z",
  "devdoc": {
    "kind": "dev",
    "methods": {},
    "version": 1
  },
  "userdoc": {
    "kind": "user",
    "methods": {},
    "version": 1
  }
}