{
  "contractName": "JudgementIndexing",
  "abi": [
    {
      "inputs": [
        {
          "internalType": "address",
          "name": "newOwner",
          "type": "address"
        }
      ],
      "name": "changeOwner",
      "outputs": [],
      "stateMutability": "nonpayable",
      "type": "function"
    },
    {
      "inputs": [],
      "name": "getOwner",
      "outputs": [
        {
          "internalType": "address",
          "name": "",
          "type": "address"
        }
      ],
      "stateMutability": "view",
      "type": "function",
      "constant": true
    },
    {
      "inputs": [
        {
          "internalType": "string",
          "name": "",
          "type": "string"
        }
      ],
      "name": "judgementIndex",
      "outputs": [
        {
          "internalType": "address",
          "name": "",
          "type": "address"
        }
      ],
      "stateMutability": "view",
      "type": "function",
      "constant": true
    },
    {
      "inputs": [
        {
          "internalType": "string",
          "name": "redCaseNum",
          "type": "string"
        },
        {
          "internalType": "string[]",
          "name": "_section",
          "type": "string[]"
        },
        {
          "internalType": "string",
          "name": "_cid",
          "type": "string"
        }
      ],
      "name": "addNewJudgement",
      "outputs": [],
      "stateMutability": "nonpayable",
      "type": "function"
    },
    {
      "inputs": [
        {
          "internalType": "string",
          "name": "_redCaseName",
          "type": "string"
        }
      ],
      "name": "getJudgement",
      "outputs": [
        {
          "internalType": "address",
          "name": "",
          "type": "address"
        }
      ],
      "stateMutability": "view",
      "type": "function",
      "constant": true
    },
    {
      "inputs": [
        {
          "internalType": "string",
          "name": "_redCaseName",
          "type": "string"
        }
      ],
      "name": "getCIDByRedCase",
      "outputs": [
        {
          "internalType": "string",
          "name": "",
          "type": "string"
        }
      ],
      "stateMutability": "view",
      "type": "function",
      "constant": true
    },
    {
      "inputs": [
        {
          "internalType": "string",
          "name": "_redCaseName",
          "type": "string"
        }
      ],
      "name": "getSectionNumbersByRedCase",
      "outputs": [
        {
          "internalType": "string[]",
          "name": "",
          "type": "string[]"
        }
      ],
      "stateMutability": "view",
      "type": "function",
      "constant": true
    }
  ],
  "bytecode": "0x608060405234801561001057600080fd5b50336000806101000a81548173ffffffffffffffffffffffffffffffffffffffff021916908373ffffffffffffffffffffffffffffffffffffffff1602179055506119ad806100606000396000f3fe60806040523480156200001157600080fd5b5060043610620000885760003560e01c80639ca1a3c011620000635780639ca1a3c0146200011b578063a18b38f31462000151578063a6f9dae11462000187578063be8fe92c14620001a75762000088565b80631f719ba1146200008d57806342cfaed614620000c3578063893d20e814620000f9575b600080fd5b620000ab6004803603810190620000a5919062000790565b620001c7565b604051620000ba919062000944565b60405180910390f35b620000e16004803603810190620000db919062000790565b62000287565b604051620000f09190620009ad565b60405180910390f35b62000103620002d1565b604051620001129190620009ad565b60405180910390f35b62000139600480360381019062000133919062000790565b620002fa565b60405162000148919062000a1c565b60405180910390f35b6200016f600480360381019062000169919062000790565b620003ba565b6040516200017e9190620009ad565b60405180910390f35b620001a560048036038101906200019f919062000a71565b62000403565b005b620001c56004803603810190620001bf919062000b9f565b620004d7565b005b6060600182604051620001db919062000c9a565b908152602001604051809103902060009054906101000a900473ffffffffffffffffffffffffffffffffffffffff1673ffffffffffffffffffffffffffffffffffffffff16638787d6a36040518163ffffffff1660e01b8152600401600060405180830381865afa15801562000255573d6000803e3d6000fd5b505050506040513d6000823e3d601f19601f8201168201806040525081019062000280919062000df9565b9050919050565b60006001826040516200029b919062000c9a565b908152602001604051809103902060009054906101000a900473ffffffffffffffffffffffffffffffffffffffff169050919050565b60008060009054906101000a900473ffffffffffffffffffffffffffffffffffffffff16905090565b60606001826040516200030e919062000c9a565b908152602001604051809103902060009054906101000a900473ffffffffffffffffffffffffffffffffffffffff1673ffffffffffffffffffffffffffffffffffffffff166302790e346040518163ffffffff1660e01b8152600401600060405180830381865afa15801562000388573d6000803e3d6000fd5b505050506040513d6000823e3d601f19601f82011682018060405250810190620003b3919062000e4a565b9050919050565b6001818051602081018201805184825260208301602085012081835280955050505050506000915054906101000a900473ffffffffffffffffffffffffffffffffffffffff1681565b60008054906101000a900473ffffffffffffffffffffffffffffffffffffffff1673ffffffffffffffffffffffffffffffffffffffff163373ffffffffffffffffffffffffffffffffffffffff161462000494576040517f08c379a00000000000000000000000000000000000000000000000000000000081526004016200048b9062000eeb565b60405180910390fd5b806000806101000a81548173ffffffffffffffffffffffffffffffffffffffff021916908373ffffffffffffffffffffffffffffffffffffffff16021790555050565b60008054906101000a900473ffffffffffffffffffffffffffffffffffffffff1673ffffffffffffffffffffffffffffffffffffffff163373ffffffffffffffffffffffffffffffffffffffff161462000568576040517f08c379a00000000000000000000000000000000000000000000000000000000081526004016200055f9062000eeb565b60405180910390fd5b600081836040516200057a906200060c565b6200058792919062000f0d565b604051809103906000f080158015620005a4573d6000803e3d6000fd5b50905080600185604051620005ba919062000c9a565b908152602001604051809103902060006101000a81548173ffffffffffffffffffffffffffffffffffffffff021916908373ffffffffffffffffffffffffffffffffffffffff16021790555050505050565b610a2f8062000f4983390190565b6000604051905090565b600080fd5b600080fd5b600080fd5b600080fd5b6000601f19601f8301169050919050565b7f4e487b7100000000000000000000000000000000000000000000000000000000600052604160045260246000fd5b620006838262000638565b810181811067ffffffffffffffff82111715620006a557620006a462000649565b5b80604052505050565b6000620006ba6200061a565b9050620006c8828262000678565b919050565b600067ffffffffffffffff821115620006eb57620006ea62000649565b5b620006f68262000638565b9050602081019050919050565b82818337600083830152505050565b6000620007296200072384620006cd565b620006ae565b90508281526020810184848401111562000748576200074762000633565b5b6200075584828562000703565b509392505050565b600082601f8301126200077557620007746200062e565b5b81356200078784826020860162000712565b91505092915050565b600060208284031215620007a957620007a862000624565b5b600082013567ffffffffffffffff811115620007ca57620007c962000629565b5b620007d8848285016200075d565b91505092915050565b600081519050919050565b600082825260208201905092915050565b6000819050602082019050919050565b600081519050919050565b600082825260208201905092915050565b60005b83811015620008495780820151818401526020810190506200082c565b8381111562000859576000848401525b50505050565b60006200086c826200080d565b62000878818562000818565b93506200088a81856020860162000829565b620008958162000638565b840191505092915050565b6000620008ae83836200085f565b905092915050565b6000602082019050919050565b6000620008d082620007e1565b620008dc8185620007ec565b935083602082028501620008f085620007fd565b8060005b85811015620009325784840389528151620009108582620008a0565b94506200091d83620008b6565b925060208a01995050600181019050620008f4565b50829750879550505050505092915050565b60006020820190508181036000830152620009608184620008c3565b905092915050565b600073ffffffffffffffffffffffffffffffffffffffff82169050919050565b6000620009958262000968565b9050919050565b620009a78162000988565b82525050565b6000602082019050620009c460008301846200099c565b92915050565b600082825260208201905092915050565b6000620009e8826200080d565b620009f48185620009ca565b935062000a0681856020860162000829565b62000a118162000638565b840191505092915050565b6000602082019050818103600083015262000a388184620009db565b905092915050565b62000a4b8162000988565b811462000a5757600080fd5b50565b60008135905062000a6b8162000a40565b92915050565b60006020828403121562000a8a5762000a8962000624565b5b600062000a9a8482850162000a5a565b91505092915050565b600067ffffffffffffffff82111562000ac15762000ac062000649565b5b602082029050602081019050919050565b600080fd5b600062000aee62000ae88462000aa3565b620006ae565b9050808382526020820190506020840283018581111562000b145762000b1362000ad2565b5b835b8181101562000b6257803567ffffffffffffffff81111562000b3d5762000b3c6200062e565b5b80860162000b4c89826200075d565b8552602085019450505060208101905062000b16565b5050509392505050565b600082601f83011262000b845762000b836200062e565b5b813562000b9684826020860162000ad7565b91505092915050565b60008060006060848603121562000bbb5762000bba62000624565b5b600084013567ffffffffffffffff81111562000bdc5762000bdb62000629565b5b62000bea868287016200075d565b935050602084013567ffffffffffffffff81111562000c0e5762000c0d62000629565b5b62000c1c8682870162000b6c565b925050604084013567ffffffffffffffff81111562000c405762000c3f62000629565b5b62000c4e868287016200075d565b9150509250925092565b600081905092915050565b600062000c70826200080d565b62000c7c818562000c58565b935062000c8e81856020860162000829565b80840191505092915050565b600062000ca8828462000c63565b915081905092915050565b600062000cca62000cc484620006cd565b620006ae565b90508281526020810184848401111562000ce95762000ce862000633565b5b62000cf684828562000829565b509392505050565b600082601f83011262000d165762000d156200062e565b5b815162000d2884826020860162000cb3565b91505092915050565b600062000d4862000d428462000aa3565b620006ae565b9050808382526020820190506020840283018581111562000d6e5762000d6d62000ad2565b5b835b8181101562000dbc57805167ffffffffffffffff81111562000d975762000d966200062e565b5b80860162000da6898262000cfe565b8552602085019450505060208101905062000d70565b5050509392505050565b600082601f83011262000dde5762000ddd6200062e565b5b815162000df084826020860162000d31565b91505092915050565b60006020828403121562000e125762000e1162000624565b5b600082015167ffffffffffffffff81111562000e335762000e3262000629565b5b62000e418482850162000dc6565b91505092915050565b60006020828403121562000e635762000e6262000624565b5b600082015167ffffffffffffffff81111562000e845762000e8362000629565b5b62000e928482850162000cfe565b91505092915050565b7f756e617574686f72697a65640000000000000000000000000000000000000000600082015250565b600062000ed3600c83620009ca565b915062000ee08262000e9b565b602082019050919050565b6000602082019050818103600083015262000f068162000ec4565b9050919050565b6000604082019050818103600083015262000f298185620009db565b9050818103602083015262000f3f8184620008c3565b9050939250505056fe60806040523480156200001157600080fd5b5060405162000a2f38038062000a2f833981810160405281019062000037919062000420565b81600090805190602001906200004f929190620000d7565b5060005b8151811015620000ce576001828281518110620000755762000074620004a5565b5b6020026020010151908060018154018082558091505060019003906000526020600020016000909190919091509080519060200190620000b7929190620000d7565b508080620000c5906200050d565b91505062000053565b505050620005be565b828054620000e59062000589565b90600052602060002090601f01602090048101928262000109576000855562000155565b82601f106200012457805160ff191683800117855562000155565b8280016001018555821562000155579182015b828111156200015457825182559160200191906001019062000137565b5b50905062000164919062000168565b5090565b5b808211156200018357600081600090555060010162000169565b5090565b6000604051905090565b600080fd5b600080fd5b600080fd5b600080fd5b6000601f19601f8301169050919050565b7f4e487b7100000000000000000000000000000000000000000000000000000000600052604160045260246000fd5b620001f082620001a5565b810181811067ffffffffffffffff82111715620002125762000211620001b6565b5b80604052505050565b60006200022762000187565b9050620002358282620001e5565b919050565b600067ffffffffffffffff821115620002585762000257620001b6565b5b6200026382620001a5565b9050602081019050919050565b60005b838110156200029057808201518184015260208101905062000273565b83811115620002a0576000848401525b50505050565b6000620002bd620002b7846200023a565b6200021b565b905082815260208101848484011115620002dc57620002db620001a0565b5b620002e984828562000270565b509392505050565b600082601f8301126200030957620003086200019b565b5b81516200031b848260208601620002a6565b91505092915050565b600067ffffffffffffffff821115620003425762000341620001b6565b5b602082029050602081019050919050565b600080fd5b60006200036f620003698462000324565b6200021b565b9050808382526020820190506020840283018581111562000395576200039462000353565b5b835b81811015620003e357805167ffffffffffffffff811115620003be57620003bd6200019b565b5b808601620003cd8982620002f1565b8552602085019450505060208101905062000397565b5050509392505050565b600082601f8301126200040557620004046200019b565b5b81516200041784826020860162000358565b91505092915050565b600080604083850312156200043a576200043962000191565b5b600083015167ffffffffffffffff8111156200045b576200045a62000196565b5b6200046985828601620002f1565b925050602083015167ffffffffffffffff8111156200048d576200048c62000196565b5b6200049b85828601620003ed565b9150509250929050565b7f4e487b7100000000000000000000000000000000000000000000000000000000600052603260045260246000fd5b7f4e487b7100000000000000000000000000000000000000000000000000000000600052601160045260246000fd5b6000819050919050565b60006200051a8262000503565b91507fffffffffffffffffffffffffffffffffffffffffffffffffffffffffffffffff82036200054f576200054e620004d4565b5b600182019050919050565b7f4e487b7100000000000000000000000000000000000000000000000000000000600052602260045260246000fd5b60006002820490506001821680620005a257607f821691505b602082108103620005b857620005b76200055a565b5b50919050565b61046180620005ce6000396000f3fe608060405234801561001057600080fd5b50600436106100365760003560e01c806302790e341461003b5780638787d6a314610059575b600080fd5b610043610077565b604051610050919061027b565b60405180910390f35b610061610109565b60405161006e91906103a9565b60405180910390f35b606060008054610086906103fa565b80601f01602080910402602001604051908101604052809291908181526020018280546100b2906103fa565b80156100ff5780601f106100d4576101008083540402835291602001916100ff565b820191906000526020600020905b8154815290600101906020018083116100e257829003601f168201915b5050505050905090565b60606001805480602002602001604051908101604052809291908181526020016000905b828210156101d957838290600052602060002001805461014c906103fa565b80601f0160208091040260200160405190810160405280929190818152602001828054610178906103fa565b80156101c55780601f1061019a576101008083540402835291602001916101c5565b820191906000526020600020905b8154815290600101906020018083116101a857829003601f168201915b50505050508152602001906001019061012d565b50505050905090565b600081519050919050565b600082825260208201905092915050565b60005b8381101561021c578082015181840152602081019050610201565b8381111561022b576000848401525b50505050565b6000601f19601f8301169050919050565b600061024d826101e2565b61025781856101ed565b93506102678185602086016101fe565b61027081610231565b840191505092915050565b600060208201905081810360008301526102958184610242565b905092915050565b600081519050919050565b600082825260208201905092915050565b6000819050602082019050919050565b600082825260208201905092915050565b60006102e5826101e2565b6102ef81856102c9565b93506102ff8185602086016101fe565b61030881610231565b840191505092915050565b600061031f83836102da565b905092915050565b6000602082019050919050565b600061033f8261029d565b61034981856102a8565b93508360208202850161035b856102b9565b8060005b8581101561039757848403895281516103788582610313565b945061038383610327565b925060208a0199505060018101905061035f565b50829750879550505050505092915050565b600060208201905081810360008301526103c38184610334565b905092915050565b7f4e487b7100000000000000000000000000000000000000000000000000000000600052602260045260246000fd5b6000600282049050600182168061041257607f821691505b602082108103610425576104246103cb565b5b5091905056fea2646970667358221220f1b859e4f1ef7bd361d0bc1f3e061fb7e2569129b78f0013531a99b6ef79f2b564736f6c634300080e0033a264697066735822122042261f861f08b14ee9ce7c88bf757aedd8a809a310b1543d0fe053e488f390c564736f6c634300080e0033",
  "immutableReferences": {},
  "source": "// SPDX-License-Identifier: MIT\r\npragma solidity >=0.4.22 <0.9.0;\r\npragma experimental ABIEncoderV2;\r\n\r\n\r\ncontract Ownable {\r\n    address private owner;\r\n\r\n    // modifier to check if caller is owner\r\n    modifier onlyOwner() {\r\n        require(msg.sender == owner, \"unauthorized\");\r\n        _;\r\n    }\r\n    constructor() public {\r\n        owner = msg.sender;\r\n    }\r\n\r\n    function changeOwner(address newOwner) public onlyOwner {\r\n        owner = newOwner;\r\n    }\r\n\r\n    function getOwner() public view returns (address) {\r\n        return owner;\r\n    }\r\n}\r\n\r\ncontract Judgement {\r\n    string cid;\r\n    string[] sectionNumbers;\r\n    \r\n    constructor(string memory _cid, string[] memory _sectionNumbers) public {\r\n        cid = _cid;\r\n        for (uint i; i < _sectionNumbers.length; i++) {\r\n            sectionNumbers.push( _sectionNumbers[i]);\r\n        }\r\n    }\r\n\r\n    function getCID() public view returns (string memory) {\r\n        return cid;\r\n    }\r\n\r\n    function getSectionNumbers() public view returns (string[] memory) {\r\n        return sectionNumbers;\r\n    }\r\n\r\n}\r\n\r\ncontract JudgementIndexing is Ownable{\r\n    mapping(string => address) public judgementIndex; \r\n\r\n    function addNewJudgement(string memory redCaseNum, string[] memory _section, string memory _cid) public onlyOwner {\r\n        address _judgementAddress = address(new Judgement(_cid, _section));\r\n        judgementIndex[redCaseNum] = _judgementAddress;\r\n    }\r\n\r\n    function getJudgement(string memory _redCaseName) public view returns (address) {\r\n        return judgementIndex[_redCaseName];\r\n    }\r\n\r\n    function getCIDByRedCase(string memory _redCaseName) public view returns (string memory) {\r\n        return Judgement(judgementIndex[_redCaseName]).getCID();\r\n    }\r\n\r\n    function getSectionNumbersByRedCase(string memory _redCaseName) public view returns (string[] memory) {\r\n        return Judgement(judgementIndex[_redCaseName]).getSectionNumbers();\r\n    }\r\n}\r\n",
  "sourcePath": "C:\\Peem\\CU\\Y4_S1\\ADV_TOP_COMP\\Project\\lawchain\\truffle\\contracts\\JudgementIndexing.sol",
  "compiler": {
    "name": "solc",
    "version": "0.8.14+commit.80d49f37.Emscripten.clang"
  },
  "schemaVersion": "3.4.10",
  "updatedAt": "2022-11-19T08:04:25.130Z",
  "networkType": "ethereum",
  "devdoc": {
    "kind": "dev",
    "methods": {},
    "version": 1
  },
  "userdoc": {
    "kind": "user",
    "methods": {},
    "version": 1
  }
}