{
  "contractName": "Law",
  "abi": [
    {
      "inputs": [
        {
          "internalType": "string",
          "name": "_cid",
          "type": "string"
        }
      ],
      "stateMutability": "nonpayable",
      "type": "constructor"
    },
    {
      "inputs": [],
      "name": "getCid",
      "outputs": [
        {
          "internalType": "string",
          "name": "",
          "type": "string"
        }
      ],
      "stateMutability": "view",
      "type": "function"
    }
  ],
  "bytecode": "0x608060405234801561001057600080fd5b5060405161055938038061055983398181016040528101906100329190610270565b806000908051906020019061004892919061004f565b5050610319565b82805461005b906102e8565b90600052602060002090601f01602090048101928261007d57600085556100c4565b82601f1061009657805160ff19168380011785556100c4565b828001600101855582156100c4579182015b828111156100c35782518255916020019190600101906100a8565b5b5090506100d191906100d5565b5090565b5b808211156100ee5760008160009055506001016100d6565b5090565b6000604051905090565b600080fd5b600080fd5b600080fd5b600080fd5b6000601f19601f8301169050919050565b7f4e487b7100000000000000000000000000000000000000000000000000000000600052604160045260246000fd5b61015982610110565b810181811067ffffffffffffffff8211171561017857610177610121565b5b80604052505050565b600061018b6100f2565b90506101978282610150565b919050565b600067ffffffffffffffff8211156101b7576101b6610121565b5b6101c082610110565b9050602081019050919050565b60005b838110156101eb5780820151818401526020810190506101d0565b838111156101fa576000848401525b50505050565b600061021361020e8461019c565b610181565b90508281526020810184848401111561022f5761022e61010b565b5b61023a8482856101cd565b509392505050565b600082601f83011261025757610256610106565b5b8151610267848260208601610200565b91505092915050565b600060208284031215610286576102856100fc565b5b600082015167ffffffffffffffff8111156102a4576102a3610101565b5b6102b084828501610242565b91505092915050565b7f4e487b7100000000000000000000000000000000000000000000000000000000600052602260045260246000fd5b6000600282049050600182168061030057607f821691505b602082108103610313576103126102b9565b5b50919050565b610231806103286000396000f3fe608060405234801561001057600080fd5b506004361061002b5760003560e01c8063ca00c70214610030575b600080fd5b61003861004e565b6040516100459190610179565b60405180910390f35b60606000805461005d906101ca565b80601f0160208091040260200160405190810160405280929190818152602001828054610089906101ca565b80156100d65780601f106100ab576101008083540402835291602001916100d6565b820191906000526020600020905b8154815290600101906020018083116100b957829003601f168201915b5050505050905090565b600081519050919050565b600082825260208201905092915050565b60005b8381101561011a5780820151818401526020810190506100ff565b83811115610129576000848401525b50505050565b6000601f19601f8301169050919050565b600061014b826100e0565b61015581856100eb565b93506101658185602086016100fc565b61016e8161012f565b840191505092915050565b600060208201905081810360008301526101938184610140565b905092915050565b7f4e487b7100000000000000000000000000000000000000000000000000000000600052602260045260246000fd5b600060028204905060018216806101e257607f821691505b6020821081036101f5576101f461019b565b5b5091905056fea264697066735822122013f048aa6a9d9c1c3977a848fc9b46272cadfd17361a2f64635dc650b1731c2c64736f6c634300080e0033",
  "immutableReferences": {},
  "source": "// SPDX-License-Identifier: MIT\r\npragma solidity >=0.4.22 <0.9.0;\r\ncontract Law{\r\n    string cid;\r\n    constructor (string memory _cid) public{\r\n        cid = _cid;\r\n    }\r\n    function getCid() public view returns(string memory){\r\n        return cid;\r\n    }\r\n}\r\ncontract LawIndexing{\r\n    struct Draft{\r\n        string cid;\r\n        address[] signers;\r\n        bool allocated;\r\n    }\r\n    struct LawStruct{\r\n        Law[] laws;\r\n        bool allocated;\r\n    }\r\n    mapping(string=>LawStruct) lawMapping;\r\n    mapping(string=>Draft) draftMapping;\r\n    string private _secret = \"SECRETS\";\r\n    address[] authorizedUsers = new address[](0);\r\n\r\n    function addAuthorizedUser(address user, string memory secret) public payable {\r\n        require(keccak256(abi.encode(secret)) == keccak256(abi.encode(_secret)),\"Invalid secret\");\r\n        require(auth(user) == false, \"This user is already added\");\r\n        authorizedUsers.push(user);\r\n    }\r\n\r\n    function viewAuthorizedUsers() public view returns (address[] memory) {\r\n        return authorizedUsers;\r\n    }\r\n\r\n    function auth(address user) private view returns (bool){\r\n        for (uint i = 0; i < authorizedUsers.length; i++) {\r\n            if (authorizedUsers[i] == user) {\r\n                return true;\r\n            }\r\n        }\r\n        return false;\r\n    }\r\n\r\n    function checkDuplicateSign(address signer,string memory article) private view returns(bool) {\r\n        for (uint i = 0; i < draftMapping[article].signers.length; i++) {\r\n            if (draftMapping[article].signers[i] == signer) {\r\n                return true;\r\n            }\r\n        }\r\n        return false;\r\n    }\r\n\r\n    function editOrCreateDraft(string memory article,string memory cid) public payable{\r\n        require(auth(msg.sender),\"Unauthorized\");\r\n        draftMapping[article].signers = new address[](0);\r\n        draftMapping[article].cid = cid;\r\n        draftMapping[article].allocated  = true;\r\n    }\r\n\r\n    function getDraft(string memory article) public view returns(Draft memory){\r\n        return draftMapping[article];\r\n    }\r\n\r\n    function sign(string memory article) public payable{\r\n        require(auth(msg.sender),\"Unauthorized\");\r\n        require(draftMapping[article].allocated,\"The draft is not exists\");\r\n        require(checkDuplicateSign(msg.sender,article) == false, \"You have already signed this draft\");\r\n        draftMapping[article].signers.push(msg.sender);\r\n        if(draftMapping[article].signers.length >= authorizedUsers.length/2){\r\n            Law newLaw = new Law(draftMapping[article].cid);\r\n            if(lawMapping[article].allocated){\r\n                lawMapping[article].laws.push(newLaw);\r\n            }else{\r\n                lawMapping[article].laws = new Law[](0);\r\n                lawMapping[article].laws.push(newLaw);\r\n                lawMapping[article].allocated = true;\r\n            }\r\n            draftMapping[article].allocated = false;\r\n            draftMapping[article].signers = new address[](0);\r\n            draftMapping[article].cid = \"\";\r\n        }\r\n    }\r\n\r\n    function getLatestLaw(string memory article) public view returns (string memory){\r\n        return lawMapping[article].laws[lawMapping[article].laws.length-1].getCid();\r\n    }\r\n\r\n    function getEveryLawVersions(string memory article) public view returns (string[] memory){\r\n        string[] memory everyLawVersions = new string[](lawMapping[article].laws.length);\r\n        for(uint i = 0; i< lawMapping[article].laws.length ; i++){\r\n            everyLawVersions[i] = (lawMapping[article].laws[i].getCid());\r\n        }\r\n        return everyLawVersions;\r\n    }\r\n}",
  "sourcePath": "C:\\Peem\\CU\\Y4_S1\\ADV_TOP_COMP\\Project\\lawchain\\truffle\\contracts\\LawIndexing.sol",
  "compiler": {
    "name": "solc",
    "version": "0.8.14+commit.80d49f37.Emscripten.clang"
  },
  "schemaVersion": "3.4.10",
  "updatedAt": "2022-11-19T08:03:18.714Z",
  "devdoc": {
    "kind": "dev",
    "methods": {},
    "version": 1
  },
  "userdoc": {
    "kind": "user",
    "methods": {},
    "version": 1
  }
}