{
  "contractName": "LawIndexing",
  "abi": [
    {
      "inputs": [
        {
          "internalType": "address",
          "name": "user",
          "type": "address"
        },
        {
          "internalType": "string",
          "name": "secret",
          "type": "string"
        }
      ],
      "name": "addAuthorizedUser",
      "outputs": [],
      "stateMutability": "payable",
      "type": "function",
      "payable": true
    },
    {
      "inputs": [],
      "name": "viewAuthorizedUsers",
      "outputs": [
        {
          "internalType": "address[]",
          "name": "",
          "type": "address[]"
        }
      ],
      "stateMutability": "view",
      "type": "function",
      "constant": true
    },
    {
      "inputs": [
        {
          "internalType": "string",
          "name": "article",
          "type": "string"
        },
        {
          "internalType": "string",
          "name": "cid",
          "type": "string"
        }
      ],
      "name": "editOrCreateDraft",
      "outputs": [],
      "stateMutability": "payable",
      "type": "function",
      "payable": true
    },
    {
      "inputs": [
        {
          "internalType": "string",
          "name": "article",
          "type": "string"
        }
      ],
      "name": "getDraft",
      "outputs": [
        {
          "components": [
            {
              "internalType": "string",
              "name": "cid",
              "type": "string"
            },
            {
              "internalType": "address[]",
              "name": "signers",
              "type": "address[]"
            },
            {
              "internalType": "bool",
              "name": "allocated",
              "type": "bool"
            }
          ],
          "internalType": "struct LawIndexing.Draft",
          "name": "",
          "type": "tuple"
        }
      ],
      "stateMutability": "view",
      "type": "function",
      "constant": true
    },
    {
      "inputs": [
        {
          "internalType": "string",
          "name": "article",
          "type": "string"
        }
      ],
      "name": "sign",
      "outputs": [],
      "stateMutability": "payable",
      "type": "function",
      "payable": true
    },
    {
      "inputs": [
        {
          "internalType": "string",
          "name": "article",
          "type": "string"
        }
      ],
      "name": "getLatestLaw",
      "outputs": [
        {
          "internalType": "string",
          "name": "",
          "type": "string"
        }
      ],
      "stateMutability": "view",
      "type": "function",
      "constant": true
    },
    {
      "inputs": [
        {
          "internalType": "string",
          "name": "article",
          "type": "string"
        }
      ],
      "name": "getEveryLawVersions",
      "outputs": [
        {
          "internalType": "string[]",
          "name": "",
          "type": "string[]"
        }
      ],
      "stateMutability": "view",
      "type": "function",
      "constant": true
    }
  ],
  "bytecode": "0x60806040526040518060400160405280600781526020017f53454352455453000000000000000000000000000000000000000000000000008152506002908051906020019062000051929190620000cc565b50600067ffffffffffffffff81111562000070576200006f6200020b565b5b6040519080825280602002602001820160405280156200009f5781602001602082028036833780820191505090505b5060039080519060200190620000b79291906200015d565b50348015620000c557600080fd5b506200029e565b828054620000da9062000269565b90600052602060002090601f016020900481019282620000fe57600085556200014a565b82601f106200011957805160ff19168380011785556200014a565b828001600101855582156200014a579182015b82811115620001495782518255916020019190600101906200012c565b5b509050620001599190620001ec565b5090565b828054828255906000526020600020908101928215620001d9579160200282015b82811115620001d85782518260006101000a81548173ffffffffffffffffffffffffffffffffffffffff021916908373ffffffffffffffffffffffffffffffffffffffff160217905550916020019190600101906200017e565b5b509050620001e89190620001ec565b5090565b5b8082111562000207576000816000905550600101620001ed565b5090565b7f4e487b7100000000000000000000000000000000000000000000000000000000600052604160045260246000fd5b7f4e487b7100000000000000000000000000000000000000000000000000000000600052602260045260246000fd5b600060028204905060018216806200028257607f821691505b6020821081036200029857620002976200023a565b5b50919050565b61252580620002ae6000396000f3fe6080604052600436106200007a5760003560e01c80639e85dddf11620000555780639e85dddf1462000103578063b3e0ea321462000147578063df4e060e1462000177578063e830f56c14620001bb576200007a565b80631ea9ff70146200007f5780635102a1a414620000c357806379d6348d14620000e3575b600080fd5b3480156200008c57600080fd5b50620000ab6004803603810190620000a59190620013e3565b620001db565b604051620000ba9190620014c7565b60405180910390f35b620000e16004803603810190620000db919062001550565b620002f1565b005b620001016004803603810190620000fb9190620013e3565b62000442565b005b3480156200011057600080fd5b506200012f6004803603810190620001299190620013e3565b62000995565b6040516200013e919062001750565b60405180910390f35b3480156200015457600080fd5b506200015f62000b16565b6040516200016e9190620017ef565b60405180910390f35b3480156200018457600080fd5b50620001a360048036038101906200019d9190620013e3565b62000ba6565b604051620001b29190620018e3565b60405180910390f35b620001d96004803603810190620001d3919062001907565b62000d70565b005b6060600082604051620001ef9190620019ce565b90815260200160405180910390206000016001600084604051620002149190620019ce565b90815260200160405180910390206000018054905062000235919062001a20565b8154811062000249576200024862001a5b565b5b9060005260206000200160009054906101000a900473ffffffffffffffffffffffffffffffffffffffff1673ffffffffffffffffffffffffffffffffffffffff1663ca00c7026040518163ffffffff1660e01b8152600401600060405180830381865afa158015620002bf573d6000803e3d6000fd5b505050506040513d6000823e3d601f19601f82011682018060405250810190620002ea919062001b08565b9050919050565b600260405160200162000305919062001c5e565b60405160208183030381529060405280519060200120816040516020016200032e9190620014c7565b604051602081830303815290604052805190602001201462000387576040517f08c379a00000000000000000000000000000000000000000000000000000000081526004016200037e9062001cd2565b60405180910390fd5b60001515620003968362000ebd565b151514620003db576040517f08c379a0000000000000000000000000000000000000000000000000000000008152600401620003d29062001d44565b60405180910390fd5b6003829080600181540180825580915050600190039060005260206000200160009091909190916101000a81548173ffffffffffffffffffffffffffffffffffffffff021916908373ffffffffffffffffffffffffffffffffffffffff1602179055505050565b6200044d3362000ebd565b6200048f576040517f08c379a0000000000000000000000000000000000000000000000000000000008152600401620004869062001db6565b60405180910390fd5b600181604051620004a19190620019ce565b908152602001604051809103902060020160009054906101000a900460ff1662000502576040517f08c379a0000000000000000000000000000000000000000000000000000000008152600401620004f99062001e28565b60405180910390fd5b6000151562000512338362000f74565b15151462000557576040517f08c379a00000000000000000000000000000000000000000000000000000000081526004016200054e9062001ec0565b60405180910390fd5b600181604051620005699190620019ce565b9081526020016040518091039020600101339080600181540180825580915050600190039060005260206000200160009091909190916101000a81548173ffffffffffffffffffffffffffffffffffffffff021916908373ffffffffffffffffffffffffffffffffffffffff1602179055506002600380549050620005ef919062001f11565b600182604051620006019190620019ce565b9081526020016040518091039020600101805490501062000992576000600182604051620006309190620019ce565b90815260200160405180910390206000016040516200064f906200106e565b6200065b919062001c5e565b604051809103906000f08015801562000678573d6000803e3d6000fd5b5090506000826040516200068d9190620019ce565b908152602001604051809103902060010160009054906101000a900460ff16156200073c57600082604051620006c49190620019ce565b9081526020016040518091039020600001819080600181540180825580915050600190039060005260206000200160009091909190916101000a81548173ffffffffffffffffffffffffffffffffffffffff021916908373ffffffffffffffffffffffffffffffffffffffff16021790555062000884565b600067ffffffffffffffff8111156200075a57620007596200129c565b5b604051908082528060200260200182016040528015620007895781602001602082028036833780820191505090505b506000836040516200079c9190620019ce565b90815260200160405180910390206000019080519060200190620007c29291906200107c565b50600082604051620007d59190620019ce565b9081526020016040518091039020600001819080600181540180825580915050600190039060005260206000200160009091909190916101000a81548173ffffffffffffffffffffffffffffffffffffffff021916908373ffffffffffffffffffffffffffffffffffffffff16021790555060016000836040516200085b9190620019ce565b908152602001604051809103902060010160006101000a81548160ff0219169083151502179055505b6000600183604051620008989190620019ce565b908152602001604051809103902060020160006101000a81548160ff021916908315150217905550600067ffffffffffffffff811115620008de57620008dd6200129c565b5b6040519080825280602002602001820160405280156200090d5781602001602082028036833780820191505090505b50600183604051620009209190620019ce565b90815260200160405180910390206001019080519060200190620009469291906200110b565b5060405180602001604052806000815250600183604051620009699190620019ce565b908152602001604051809103902060000190805190602001906200098f9291906200119a565b50505b50565b6200099f6200122b565b600182604051620009b19190620019ce565b9081526020016040518091039020604051806060016040529081600082018054620009dc9062001b88565b80601f016020809104026020016040519081016040528092919081815260200182805462000a0a9062001b88565b801562000a5b5780601f1062000a2f5761010080835404028352916020019162000a5b565b820191906000526020600020905b81548152906001019060200180831162000a3d57829003601f168201915b505050505081526020016001820180548060200260200160405190810160405280929190818152602001828054801562000aeb57602002820191906000526020600020905b8160009054906101000a900473ffffffffffffffffffffffffffffffffffffffff1673ffffffffffffffffffffffffffffffffffffffff168152602001906001019080831162000aa0575b505050505081526020016002820160009054906101000a900460ff1615151515815250509050919050565b6060600380548060200260200160405190810160405280929190818152602001828054801562000b9c57602002820191906000526020600020905b8160009054906101000a900473ffffffffffffffffffffffffffffffffffffffff1673ffffffffffffffffffffffffffffffffffffffff168152602001906001019080831162000b51575b5050505050905090565b60606000808360405162000bbb9190620019ce565b90815260200160405180910390206000018054905067ffffffffffffffff81111562000bec5762000beb6200129c565b5b60405190808252806020026020018201604052801562000c2157816020015b606081526020019060019003908162000c0b5790505b50905060005b60008460405162000c399190620019ce565b90815260200160405180910390206000018054905081101562000d665760008460405162000c689190620019ce565b9081526020016040518091039020600001818154811062000c8e5762000c8d62001a5b565b5b9060005260206000200160009054906101000a900473ffffffffffffffffffffffffffffffffffffffff1673ffffffffffffffffffffffffffffffffffffffff1663ca00c7026040518163ffffffff1660e01b8152600401600060405180830381865afa15801562000d04573d6000803e3d6000fd5b505050506040513d6000823e3d601f19601f8201168201806040525081019062000d2f919062001b08565b82828151811062000d455762000d4462001a5b565b5b6020026020010181905250808062000d5d9062001f49565b91505062000c27565b5080915050919050565b62000d7b3362000ebd565b62000dbd576040517f08c379a000000000000000000000000000000000000000000000000000000000815260040162000db49062001db6565b60405180910390fd5b600067ffffffffffffffff81111562000ddb5762000dda6200129c565b5b60405190808252806020026020018201604052801562000e0a5781602001602082028036833780820191505090505b5060018360405162000e1d9190620019ce565b9081526020016040518091039020600101908051906020019062000e439291906200110b565b508060018360405162000e579190620019ce565b9081526020016040518091039020600001908051906020019062000e7d9291906200119a565b506001808360405162000e919190620019ce565b908152602001604051809103902060020160006101000a81548160ff0219169083151502179055505050565b600080600090505b60038054905081101562000f69578273ffffffffffffffffffffffffffffffffffffffff166003828154811062000f015762000f0062001a5b565b5b9060005260206000200160009054906101000a900473ffffffffffffffffffffffffffffffffffffffff1673ffffffffffffffffffffffffffffffffffffffff160362000f5357600191505062000f6f565b808062000f609062001f49565b91505062000ec5565b50600090505b919050565b600080600090505b60018360405162000f8e9190620019ce565b90815260200160405180910390206001018054905081101562001062578373ffffffffffffffffffffffffffffffffffffffff1660018460405162000fd49190620019ce565b9081526020016040518091039020600101828154811062000ffa5762000ff962001a5b565b5b9060005260206000200160009054906101000a900473ffffffffffffffffffffffffffffffffffffffff1673ffffffffffffffffffffffffffffffffffffffff16036200104c57600191505062001068565b8080620010599062001f49565b91505062000f7c565b50600090505b92915050565b6105598062001f9783390190565b828054828255906000526020600020908101928215620010f8579160200282015b82811115620010f75782518260006101000a81548173ffffffffffffffffffffffffffffffffffffffff021916908373ffffffffffffffffffffffffffffffffffffffff160217905550916020019190600101906200109d565b5b5090506200110791906200124e565b5090565b82805482825590600052602060002090810192821562001187579160200282015b82811115620011865782518260006101000a81548173ffffffffffffffffffffffffffffffffffffffff021916908373ffffffffffffffffffffffffffffffffffffffff160217905550916020019190600101906200112c565b5b5090506200119691906200124e565b5090565b828054620011a89062001b88565b90600052602060002090601f016020900481019282620011cc576000855562001218565b82601f10620011e757805160ff191683800117855562001218565b8280016001018555821562001218579182015b8281111562001217578251825591602001919060010190620011fa565b5b5090506200122791906200124e565b5090565b604051806060016040528060608152602001606081526020016000151581525090565b5b80821115620012695760008160009055506001016200124f565b5090565b6000604051905090565b600080fd5b600080fd5b600080fd5b600080fd5b6000601f19601f8301169050919050565b7f4e487b7100000000000000000000000000000000000000000000000000000000600052604160045260246000fd5b620012d6826200128b565b810181811067ffffffffffffffff82111715620012f857620012f76200129c565b5b80604052505050565b60006200130d6200126d565b90506200131b8282620012cb565b919050565b600067ffffffffffffffff8211156200133e576200133d6200129c565b5b62001349826200128b565b9050602081019050919050565b82818337600083830152505050565b60006200137c620013768462001320565b62001301565b9050828152602081018484840111156200139b576200139a62001286565b5b620013a884828562001356565b509392505050565b600082601f830112620013c857620013c762001281565b5b8135620013da84826020860162001365565b91505092915050565b600060208284031215620013fc57620013fb62001277565b5b600082013567ffffffffffffffff8111156200141d576200141c6200127c565b5b6200142b84828501620013b0565b91505092915050565b600081519050919050565b600082825260208201905092915050565b60005b838110156200147057808201518184015260208101905062001453565b8381111562001480576000848401525b50505050565b6000620014938262001434565b6200149f81856200143f565b9350620014b181856020860162001450565b620014bc816200128b565b840191505092915050565b60006020820190508181036000830152620014e3818462001486565b905092915050565b600073ffffffffffffffffffffffffffffffffffffffff82169050919050565b60006200151882620014eb565b9050919050565b6200152a816200150b565b81146200153657600080fd5b50565b6000813590506200154a816200151f565b92915050565b600080604083850312156200156a576200156962001277565b5b60006200157a8582860162001539565b925050602083013567ffffffffffffffff8111156200159e576200159d6200127c565b5b620015ac85828601620013b0565b9150509250929050565b600082825260208201905092915050565b6000620015d48262001434565b620015e08185620015b6565b9350620015f281856020860162001450565b620015fd816200128b565b840191505092915050565b600081519050919050565b600082825260208201905092915050565b6000819050602082019050919050565b6200163f816200150b565b82525050565b600062001653838362001634565b60208301905092915050565b6000602082019050919050565b6000620016798262001608565b62001685818562001613565b9350620016928362001624565b8060005b83811015620016c9578151620016ad888262001645565b9750620016ba836200165f565b92505060018101905062001696565b5085935050505092915050565b60008115159050919050565b620016ed81620016d6565b82525050565b60006060830160008301518482036000860152620017128282620015c7565b915050602083015184820360208601526200172e82826200166c565b9150506040830151620017456040860182620016e2565b508091505092915050565b600060208201905081810360008301526200176c8184620016f3565b905092915050565b600082825260208201905092915050565b6000620017928262001608565b6200179e818562001774565b9350620017ab8362001624565b8060005b83811015620017e2578151620017c6888262001645565b9750620017d3836200165f565b925050600181019050620017af565b5085935050505092915050565b600060208201905081810360008301526200180b818462001785565b905092915050565b600081519050919050565b600082825260208201905092915050565b6000819050602082019050919050565b60006200184d8383620015c7565b905092915050565b6000602082019050919050565b60006200186f8262001813565b6200187b81856200181e565b9350836020820285016200188f856200182f565b8060005b85811015620018d15784840389528151620018af85826200183f565b9450620018bc8362001855565b925060208a0199505060018101905062001893565b50829750879550505050505092915050565b60006020820190508181036000830152620018ff818462001862565b905092915050565b6000806040838503121562001921576200192062001277565b5b600083013567ffffffffffffffff8111156200194257620019416200127c565b5b6200195085828601620013b0565b925050602083013567ffffffffffffffff8111156200197457620019736200127c565b5b6200198285828601620013b0565b9150509250929050565b600081905092915050565b6000620019a48262001434565b620019b081856200198c565b9350620019c281856020860162001450565b80840191505092915050565b6000620019dc828462001997565b915081905092915050565b6000819050919050565b7f4e487b7100000000000000000000000000000000000000000000000000000000600052601160045260246000fd5b600062001a2d82620019e7565b915062001a3a83620019e7565b92508282101562001a505762001a4f620019f1565b5b828203905092915050565b7f4e487b7100000000000000000000000000000000000000000000000000000000600052603260045260246000fd5b600062001aa162001a9b8462001320565b62001301565b90508281526020810184848401111562001ac05762001abf62001286565b5b62001acd84828562001450565b509392505050565b600082601f83011262001aed5762001aec62001281565b5b815162001aff84826020860162001a8a565b91505092915050565b60006020828403121562001b215762001b2062001277565b5b600082015167ffffffffffffffff81111562001b425762001b416200127c565b5b62001b508482850162001ad5565b91505092915050565b7f4e487b7100000000000000000000000000000000000000000000000000000000600052602260045260246000fd5b6000600282049050600182168062001ba157607f821691505b60208210810362001bb75762001bb662001b59565b5b50919050565b60008190508160005260206000209050919050565b6000815462001be18162001b88565b62001bed81866200143f565b9450600182166000811462001c0b576001811462001c1e5762001c55565b60ff198316865260208601935062001c55565b62001c298562001bbd565b60005b8381101562001c4d5781548189015260018201915060208101905062001c2c565b808801955050505b50505092915050565b6000602082019050818103600083015262001c7a818462001bd2565b905092915050565b7f496e76616c696420736563726574000000000000000000000000000000000000600082015250565b600062001cba600e836200143f565b915062001cc78262001c82565b602082019050919050565b6000602082019050818103600083015262001ced8162001cab565b9050919050565b7f54686973207573657220697320616c7265616479206164646564000000000000600082015250565b600062001d2c601a836200143f565b915062001d398262001cf4565b602082019050919050565b6000602082019050818103600083015262001d5f8162001d1d565b9050919050565b7f556e617574686f72697a65640000000000000000000000000000000000000000600082015250565b600062001d9e600c836200143f565b915062001dab8262001d66565b602082019050919050565b6000602082019050818103600083015262001dd18162001d8f565b9050919050565b7f546865206472616674206973206e6f7420657869737473000000000000000000600082015250565b600062001e106017836200143f565b915062001e1d8262001dd8565b602082019050919050565b6000602082019050818103600083015262001e438162001e01565b9050919050565b7f596f75206861766520616c7265616479207369676e656420746869732064726160008201527f6674000000000000000000000000000000000000000000000000000000000000602082015250565b600062001ea86022836200143f565b915062001eb58262001e4a565b604082019050919050565b6000602082019050818103600083015262001edb8162001e99565b9050919050565b7f4e487b7100000000000000000000000000000000000000000000000000000000600052601260045260246000fd5b600062001f1e82620019e7565b915062001f2b83620019e7565b92508262001f3e5762001f3d62001ee2565b5b828204905092915050565b600062001f5682620019e7565b91507fffffffffffffffffffffffffffffffffffffffffffffffffffffffffffffffff820362001f8b5762001f8a620019f1565b5b60018201905091905056fe608060405234801561001057600080fd5b5060405161055938038061055983398181016040528101906100329190610270565b806000908051906020019061004892919061004f565b5050610319565b82805461005b906102e8565b90600052602060002090601f01602090048101928261007d57600085556100c4565b82601f1061009657805160ff19168380011785556100c4565b828001600101855582156100c4579182015b828111156100c35782518255916020019190600101906100a8565b5b5090506100d191906100d5565b5090565b5b808211156100ee5760008160009055506001016100d6565b5090565b6000604051905090565b600080fd5b600080fd5b600080fd5b600080fd5b6000601f19601f8301169050919050565b7f4e487b7100000000000000000000000000000000000000000000000000000000600052604160045260246000fd5b61015982610110565b810181811067ffffffffffffffff8211171561017857610177610121565b5b80604052505050565b600061018b6100f2565b90506101978282610150565b919050565b600067ffffffffffffffff8211156101b7576101b6610121565b5b6101c082610110565b9050602081019050919050565b60005b838110156101eb5780820151818401526020810190506101d0565b838111156101fa576000848401525b50505050565b600061021361020e8461019c565b610181565b90508281526020810184848401111561022f5761022e61010b565b5b61023a8482856101cd565b509392505050565b600082601f83011261025757610256610106565b5b8151610267848260208601610200565b91505092915050565b600060208284031215610286576102856100fc565b5b600082015167ffffffffffffffff8111156102a4576102a3610101565b5b6102b084828501610242565b91505092915050565b7f4e487b7100000000000000000000000000000000000000000000000000000000600052602260045260246000fd5b6000600282049050600182168061030057607f821691505b602082108103610313576103126102b9565b5b50919050565b610231806103286000396000f3fe608060405234801561001057600080fd5b506004361061002b5760003560e01c8063ca00c70214610030575b600080fd5b61003861004e565b6040516100459190610179565b60405180910390f35b60606000805461005d906101ca565b80601f0160208091040260200160405190810160405280929190818152602001828054610089906101ca565b80156100d65780601f106100ab576101008083540402835291602001916100d6565b820191906000526020600020905b8154815290600101906020018083116100b957829003601f168201915b5050505050905090565b600081519050919050565b600082825260208201905092915050565b60005b8381101561011a5780820151818401526020810190506100ff565b83811115610129576000848401525b50505050565b6000601f19601f8301169050919050565b600061014b826100e0565b61015581856100eb565b93506101658185602086016100fc565b61016e8161012f565b840191505092915050565b600060208201905081810360008301526101938184610140565b905092915050565b7f4e487b7100000000000000000000000000000000000000000000000000000000600052602260045260246000fd5b600060028204905060018216806101e257607f821691505b6020821081036101f5576101f461019b565b5b5091905056fea264697066735822122013f048aa6a9d9c1c3977a848fc9b46272cadfd17361a2f64635dc650b1731c2c64736f6c634300080e0033a26469706673582212208e875845907921538e2b2fc01c7459476cff0f67fae8a8c190ff4b049d83d71164736f6c634300080e0033",
  "immutableReferences": {},
  "source": "// SPDX-License-Identifier: MIT\r\npragma solidity >=0.4.22 <0.9.0;\r\ncontract Law{\r\n    string cid;\r\n    constructor (string memory _cid) public{\r\n        cid = _cid;\r\n    }\r\n    function getCid() public view returns(string memory){\r\n        return cid;\r\n    }\r\n}\r\ncontract LawIndexing{\r\n    struct Draft{\r\n        string cid;\r\n        address[] signers;\r\n        bool allocated;\r\n    }\r\n    struct LawStruct{\r\n        Law[] laws;\r\n        bool allocated;\r\n    }\r\n    mapping(string=>LawStruct) lawMapping;\r\n    mapping(string=>Draft) draftMapping;\r\n    string private _secret = \"SECRETS\";\r\n    address[] authorizedUsers = new address[](0);\r\n\r\n    function addAuthorizedUser(address user, string memory secret) public payable {\r\n        require(keccak256(abi.encode(secret)) == keccak256(abi.encode(_secret)),\"Invalid secret\");\r\n        require(auth(user) == false, \"This user is already added\");\r\n        authorizedUsers.push(user);\r\n    }\r\n\r\n    function viewAuthorizedUsers() public view returns (address[] memory) {\r\n        return authorizedUsers;\r\n    }\r\n\r\n    function auth(address user) private view returns (bool){\r\n        for (uint i = 0; i < authorizedUsers.length; i++) {\r\n            if (authorizedUsers[i] == user) {\r\n                return true;\r\n            }\r\n        }\r\n        return false;\r\n    }\r\n\r\n    function checkDuplicateSign(address signer,string memory article) private view returns(bool) {\r\n        for (uint i = 0; i < draftMapping[article].signers.length; i++) {\r\n            if (draftMapping[article].signers[i] == signer) {\r\n                return true;\r\n            }\r\n        }\r\n        return false;\r\n    }\r\n\r\n    function editOrCreateDraft(string memory article,string memory cid) public payable{\r\n        require(auth(msg.sender),\"Unauthorized\");\r\n        draftMapping[article].signers = new address[](0);\r\n        draftMapping[article].cid = cid;\r\n        draftMapping[article].allocated  = true;\r\n    }\r\n\r\n    function getDraft(string memory article) public view returns(Draft memory){\r\n        return draftMapping[article];\r\n    }\r\n\r\n    function sign(string memory article) public payable{\r\n        require(auth(msg.sender),\"Unauthorized\");\r\n        require(draftMapping[article].allocated,\"The draft is not exists\");\r\n        require(checkDuplicateSign(msg.sender,article) == false, \"You have already signed this draft\");\r\n        draftMapping[article].signers.push(msg.sender);\r\n        if(draftMapping[article].signers.length >= authorizedUsers.length/2){\r\n            Law newLaw = new Law(draftMapping[article].cid);\r\n            if(lawMapping[article].allocated){\r\n                lawMapping[article].laws.push(newLaw);\r\n            }else{\r\n                lawMapping[article].laws = new Law[](0);\r\n                lawMapping[article].laws.push(newLaw);\r\n                lawMapping[article].allocated = true;\r\n            }\r\n            draftMapping[article].allocated = false;\r\n            draftMapping[article].signers = new address[](0);\r\n            draftMapping[article].cid = \"\";\r\n        }\r\n    }\r\n\r\n    function getLatestLaw(string memory article) public view returns (string memory){\r\n        return lawMapping[article].laws[lawMapping[article].laws.length-1].getCid();\r\n    }\r\n\r\n    function getEveryLawVersions(string memory article) public view returns (string[] memory){\r\n        string[] memory everyLawVersions = new string[](lawMapping[article].laws.length);\r\n        for(uint i = 0; i< lawMapping[article].laws.length ; i++){\r\n            everyLawVersions[i] = (lawMapping[article].laws[i].getCid());\r\n        }\r\n        return everyLawVersions;\r\n    }\r\n}",
  "sourcePath": "C:\\Peem\\CU\\Y4_S1\\ADV_TOP_COMP\\Project\\lawchain\\truffle\\contracts\\LawIndexing.sol",
  "compiler": {
    "name": "solc",
    "version": "0.8.14+commit.80d49f37.Emscripten.clang"
  },
  "schemaVersion": "3.4.10",
  "updatedAt": "2022-11-19T11:52:34.983Z",
  "networkType": "ethereum",
  "devdoc": {
    "kind": "dev",
    "methods": {},
    "version": 1
  },
  "userdoc": {
    "kind": "user",
    "methods": {},
    "version": 1
  }
}